:100000000200D7E4F5F0F8F9EA4B6043EC4D7013C9
:1000100022EAC39C40137004EB9D400DEDC333FDF9
:10002000EC33FC05F0EC30E7E8EAC39C40067007CF
:10003000EB9D5003C38008C3EB9DFBEA9CFAD3E918
:1000400033F9E833F8ECC313FCED13FDD5F0DA8B8C
:10005000058A048802890322C000C001120003D06F
:1000600001D00022C000C001120003D001D0008CDA
:10007000028D0322EA30E707E4C39BFBE49AFAEC23
:1000800030E707E4C39DFDE49CFC22120093AA0420
:10009000AB0522C000C001EC6A33EA13C0E01200D5
:1000A00074120003D0E0C0E030E707E4C39BFBE438
:1000B0009AFAD0E030E607E4C39DFDE49CFCD00151
:1000C000D00022E4F5D075812E78207A0EF608DA79
:0A00D000FC12010E0200000200C342
:10010000A6ADB7AFA2A04C43443230783200020211
:1001100059780179007A007B267D067C001202E581
:10012000752C01752D0675803875A00175A00075B8
:10013000808075A00175A000E4F522F523E5232455
:10014000EBE52234FF5002800280030201CD75806E
:100150008075A00175A000E4F520F521E52124ECCF
:10016000E52034FF500280028002804B7C007D1429
:10017000E5212523FBE5203522FA1200648A248B31
:1001800025E52524FAE52434FF4002800280097425
:10019000262525F98780800375802075A00375A02A
:1001A000020521E52170020520E52124ECE520343B
:1001B000FF5002800280B50523E52370020522E589
:1001C0002324EBE52234FF5002800280817580C039
:1001D00075A00175A000E4F520F521E52124F9E5DD
:1001E0002034FF5002800280028036E521252DF563
:1001F00082E520352CF58312025CF58075A003752D
:10020000A00275802075A00375A0020521E521706C
:10021000020520E52124F9E52034FF500280028008
:10022000CAE4F520F521E52124FAE52034FF500247
:1002300080028002801F75802075A00375A00205D2
:1002400021E52170020520E52124FAE52034FF5044
:1002500002800280E102013822020111E58360037D
:10026000E49322A882E622E5836004E4938003A855
:1002700082E6F822E5836004E4938003A882E6F92D
:1002800022E5836004E4938003A882E6FA22E583F2
:100290006004E4938003A882E6FB22E5836004E423
:1002A000938003A882E6FC22E5836004E493800344
:1002B000A882E6FD22E5836004E4938003A882E639
:1002C000FE22E5836004E4938003A882E6FF22898E
:1002D0008288838B00EC4D6036E4E0F608A31DBDF8
:1002E000FFF31C80F0B800118B00EC4D6021E7F6A5
:1002F00009081DBDFFF41C80F1898288838B00EC06
:100300004D600CE493F608A31DBDFFF31C80F022A2
:00000001FF
