:100000000200DC8008752001D0E0D0D032C0D0C022
:10001000E080F28008752101D0E0D0D032C0D0C09D
:10002000E080F20200C57522CA75234A7590FE75FC
:10003000B0FF75CB2975CA2875C804758901D288A7
:10004000D28AD2A8D2AAD2AFE520B4012420B2022B
:100050008002801AE5232429E522347650028002AA
:10006000800CE5232442F523E52234F5F5227520A2
:1000700000E521B4012420B3028002801AE5232484
:10008000B6E522343540028002800CE52324BEF51B
:1000900023E522340AF522752100800030CF02804A
:1000A0000280F9C2CFD290E522F58C7923878AD2DB
:1000B0008CC28D8000308D02800280F9C28CC28D8E
:1000C000C290808422020026E4F5D0758124F520B8
:0F00D000F521F522F5231200230200000200C8DB
:00000001FF
