:1000000002008A80108D998D248000309902800230
:1000100080F9C2992280EE80108000309802800220
:1000200080F9C298AB9980002280EE804775878066
:10003000759888752100752240752000E52024F10F
:100040005002800280028029759890120017EBF50B
:1000500023A922A723759888AD231200030522E562
:1000600022700205210520E52024F1500280028043
:10007000D780FE2280B7E4F5D075812578207A05F7
:0D008000F608DAFC12002B020000020076E8
:00000001FF
