:100000000200D28076780179007A007B227D0B7C19
:10001000001200937801790B7A007B2D7D087C001B
:10002000120093792C87A0E5B020E04C752000E504
:100030002024F85002800280028039742DA9207893
:100040000029F9E7F97800742229F987A0752100C1
:10005000E521249C500280028002800C0521E521CC
:10006000249C5002800280F40520E52024F85002F0
:10007000800280C7792C87A080AD22808889828801
:10008000838B00EC4D6036E4E0F608A31DBDFFF362
:100090001C80F0B800118B00EC4D6021E7F60908D8
:1000A0001DBDFFF41C80F1898288838B00EC4D60BC
:1000B0000CE493F608A31DBDFFF31C80F022E4F5C9
:1000C000D075813578207A15F608DAFC1200030223
:0500D00000000200BE6B
:10010000C0F9A4B0999282F88090FF050406030715
:03011000020801E1
:00000001FF
