:10000000020099807E75253375220C752300E4F576
:1000100020F521E5212400E5206480347C50028015
:100020000280028058E525852283852382F085227F
:1000300083852382E0F524E523B40207E522B40C8E
:10004000028002800A7A22900C02EAF0EAF524E5A6
:1000500024B525048000800575900080FE0523E509
:1000600023700205220521E52170020520E52124E7
:1000700000E5206480347C5002800280A8759001E5
:1000800080FE228080E4F5D075812678207A06F6FD
:0C00900008DAFC120003020000020085E8
:00000001FF
